:100000000C942E000C94E8030C94E8030C94E80381
:100010000C94E8030C94E8030C94E8030C94E803B4
:100020000C94E8030C94E8030C94E8030C94E803A4
:100030000C94E8030C94E8030C94E8030C94E80394
:100040000C94E8030C94E8030C94E8030C94E80384
:100050000C94E803006000780007D40011241FBE50
:10006000CFE5D8E0DEBFCDBFE4E5F0E040E017C06B
:10007000B591A59135912591059107FD0CC09591FC
:100080008591EF01F92FE82F05900D92A217B30784
:10009000D9F7FE0104C01D92A217B307E1F7EB35B3
:1000A000F40731F70E946A000C945600F894FFCFD1
:1000B00044696E6F47616D6521210047414D454F91
:1000C00056455200486920303000486920300048C9
:0300D000692000A4
:1000D400CF93DF93CDB7DEB768970FB6F894DEBF42
:1000E4000FBECDBF8AB3877F8ABB8CE00E945802C3
:1000F40060E083E00E94C00360EB70E080E00E9457
:10010400E10288E0E0E6F0E0DE01119601900D9254
:100114008A95E1F788E0E8E6F0E0DE0119960190BF
:100124000D928A95E1F788E0E0E7F0E0DE01519670
:1001340001900D928A95E1F763E0CE0101960E9449
:100144000A0361E0CE0109960E940A0362E0CE012F
:1001540041960E940A03C12CD12C00E010E0E12C4E
:10016400F12C97012F703078332334F42150310966
:10017400206F3F6F2F5F3F4F79018FEC821B0E94EE
:10018400AC038CE50E94B603CB9B10C083E0C81679
:10019400D10464F482E80E94AC0383E00E94B603B5
:1001A4009FEFC91AD90A81E090E011C082EC0E9445
:1001B400AC0383E00E94B60383E0C816D10419F0AF
:1001C40080E090E004C0C12CD12C80E090E0892B29
:1001D40009F05BC09DE0E916F10409F056C082EC19
:1001E4000E94AC0381E00E94B60382E00E94B60341
:1001F4008FE19EE40197F1F700C0000082EC0E94B9
:10020400AC038AE20E94430360E080E00E94C003E2
:100214006BEB70E080E00E94E10260E070E080E05F
:100224000E94D203BC01C80101970E94D9034C016A
:10023400BC0180E090E00E94DF0361E08DE00E9459
:10024400C003C40164E670E00E9458033C0180E3EB
:10025400860F0E9443030F2EFAE0AF2EB12CF02D2F
:10026400C401B5010E945803CB01B5010E94580393
:10027400805D0E944303C301B5010E945803805D61
:100284000E944303CB9994C06CCF053611053CF012
:100294008FE99CE80197F1F700C0000027C00D32F8
:1002A40091E019073CF08FEF9CE70197F1F700C04C
:1002B40000001CC0053F91E019073CF08FE59DE666
:1002C4000197F1F700C0000011C0053893E0190749
:1002D4003CF08FE19EE40197F1F700C0000006C0F6
:1002E4008FE39CE90197F1F700C000000E94E4034A
:1002F4000A30110574F460E08AE00E94C00364ECE3
:1003040070E080E00E94290380E3800F0E94430391
:1003140049C004361105C4F460E08AE00E94C003B9
:100324006AEC70E080E00E942903C8016AE070E092
:100334000E945803B82E80E3860F0E94430380E393
:100344008B0D0E9443032EC0083E93E0190754F519
:1003540060E08AE00E94C0036FEC70E080E00E94DD
:100364002903C80164E670E00E9458034C0180E34D
:10037400860F0E9443030F2EFAE0AF2EB12CF02D0E
:10038400C801B5010E945803CB01B5010E9458036E
:10039400805D0E944303C401B5010E945803805D3F
:1003A4000E9443038FEFE81AF80A0F5F1F4FD9CE5C
:1003B4000E94E40360E083E00E94C00360EB70E00D
:1003C40080E00E94E102C12CD12C00E010E0E12C7D
:0403D400F12CC7CE73
:1003D800CF93C82F662321F08BB381608BBB03C0FA
:1003E8008BB38E7F8BBB8BB38D7F8BBB8AB38061C6
:1003F8008ABB8AB380628ABB8AB380648ABB8AB3A9
:1004080080688ABB8BB38F778BBB8BB38F7B8BBB9F
:100418008BB38F7D8BBB8BB38F7E8BBBCC231CF4B4
:100428008BB380688BBBC6FF03C08BB380648BBB68
:10043800C5FF03C08BB380628BBBC4FF03C08BB303
:1004480080618BBB0E94CA038BB38F778BBB8BB346
:100458008F7B8BBB8BB38F7D8BBB8BB38F7E8BBB23
:10046800C3FF03C08BB380688BBBC2FF03C08BB3D1
:1004780080648BBBC1FF03C08BB380628BBBC0FFA2
:1004880003C08BB380618BBB0E94CA038BB38061AE
:100498008BBB8BB380628BBB8BB380648BBB8BB302
:0804A80080688BBBCF91089521
:1004B0001F93CF93DF93182F8AB381608ABB8AB3CF
:1004C00082608ABB8AB384608ABB8AB380618ABB3C
:1004D0008AB380628ABB8AB380648ABB8AB380682D
:1004E0008ABB80E09AEF0197F1F78BB380628BBBF8
:1004F0008BB380618BBB0E94CA0380E09EE40197AE
:10050000F1F70E94CA03C0E0D1E0CE010197F1F7F4
:100510000E94CA03CE010197F1F78BB38F7E8BBB8C
:100520000E94CA032197F1F788E20E94AC0388E099
:100530000E94AC030E94E40386E00E94AC03812F7A
:0C0540000E94AC03DF91CF911F91089541
:10054C00882321F08BB381608BBB03C08BB38E7F70
:10055C008BBB8BB382608BBB8AB38F7E8ABB8AB317
:10056C008F7D8ABB8AB38F7B8ABB8AB38F778ABB1A
:10057C008BB384608BBB00C0CC9902C080E001C0FF
:10058C0080E1CD998062CE998064CF9980689BB3CD
:10059C009B7F9BBB00C09BB394609BBB00C0CC9962
:1005AC008160CD998260CE998460CF9988609BB32D
:0605BC009B7F9BBB08952C
:1005C200CF92DF92EF92A82FCB010AC00E94430381
:1005D2008FE39CE90197F1F700C00000AE2DC60140
:1005E2006C01EA2E2FEFC21AD20AE20AFC018491B0
:1005F200A7FD80818111EACF8FE798E321E0815046
:1006020090402040E1F700C00000EF90DF90CF90D3
:02061200089549
:100614000F931F93CF93DF938C01862F90E008965E
:10062400880F880F880F0E94AC03C0E0D0E007C099
:10063400F801EC0FFD1F80810E94B6032196C8309B
:0E064400D105B4F3DF91CF911F910F9108956E
:10065200CF92DF92EF92A82FCB0104C00E944303F6
:10066200AE2DC6016C01EA2E2FEFC21AD20AE20A9F
:10067200FC018491A7FD80818111F0CFEF90DF9082
:04068200CF90089578
:10068600CF93C82F0E949203CA3049F4803410F4E5
:1006960080E401C080E080580E94AC0304C061E0A1
:0A06A6008C2F0E94EC01CF91089503
:1006B00097FB072E16F4009407D077FD09D00E940F
:1006C0006C0307FC05D03EF4909581959F4F0895EB
:0806D000709561957F4F0895BC
:1006D800AA1BBB1B51E107C0AA1FBB1FA617B70760
:1006E80010F0A61BB70B881F991F5A95A9F780957C
:0806F8009095BC01CD010895AD
:10070000BA01A901DC01CB01FC01E199FECF06C0D1
:10071000FFBBEEBBE09A31960DB20D9241505040B6
:04072000B8F7089589
:1007240080E00E94A6028823DCF388E090E0019731
:0A073400F1F780E00E94A60208958C
:10073E00262FE199FECF9FBB8EBB2DBB0FB6F89433
:0A074E00E29AE19A0FBE01960895A9
:10075800CF93C82F0E94920360E08C2F0E94EC0177
:04076800CF91089590
:10076C00CF93C82F0E94920361E08C2F0E94EC0162
:04077C00CF9108957C
:10078000611104C080580E94AC03089580540E94F7
:04079000AC03089519
:100794008BB384608BBB00C08BB38B7F8BBB089502
:0E07A400CB01A8E1B0E042E050E00C948403E9
:0C07B2008617970714F4862F972F0895E0
:0A07BE000E949F03272F0C94A00354
:0807C80081E00E94AC030895DA
:0407D0000C94000085
:1007D40003020306161E040203030306171E040283
:0807E40004081C101C10101089
:00000001FF
